:020000040800F2
:100000001809002005010008993500081D2F000877
:1000100041350008AF0A0008A144000800000000B4
:100020000000000000000000000000009D3F0008EC
:10003000610B000800000000393C0008B93F0008CF
:100040001F0100081F0100081F0100081F01000810
:100050001F0100081F010008210E0008370E0008CC
:10006000410E00081F0100081F0100081F010008C1
:100070001F0100081F0100081F0100081F010008E0
:100080001F0100081F0100081F0100081F010008D0
:100090001F0100081F0100081F0100081F010008C0
:1000A0001F0100081F0100081F0100081F010008B0
:1000B0001F0100081F0100081F0100081F010008A0
:1000C0001F0100081F0100081F0100081F01000890
:1000D0001F0100081F010008BD430008514400082B
:1000E0002B0E0008653C00081F010008DFF810D047
:1000F00000F0D0FB004800470D570008AFF3008028
:10010000180900200648804706480047FEE7FEE73A
:10011000FEE7FEE7FEE7FEE7FEE7FEE7FEE7FEE7B7
:10012000DD3F0008ED00000840EA01039B0703D013
:1001300009E008C9121F08C0042AFAD203E011F826
:10014000013B00F8013B521EF9D27047D2B201E0E8
:1001500000F8012B491EFBD270470022F6E710B5CC
:1001600013460A4604461946FFF7F0FF204610BD25
:1001700030B505462A460B4612F8010B13F8014B21
:1001800008B1A042F8D01CB1002802D06D1CF1E7E4
:10019000284630BDCAB2401E10F8011F8A4202D064
:1001A0000029F9D100207047421C10F8011B0029DA
:1001B000FBD1801A704730B504460020034600E0AA
:1001C0005B1C934203D2E05CCD5C401BF8D030BD99
:1001D00010B5044600E0401C0378002BFBD100E082
:1001E000401C521E04D311F8013B0370002BF7D1C1
:1001F00000210170204610BD30B480EA010202F0F7
:10020000004530F0004221F0004013D090B1C30D02
:10021000D40DC2F31601C0F31600E41A41F4000134
:1002200040F400027D34914201D3641C00E0490097
:10023000002C02DA30BC002070474FF4000000238D
:10024000914201D3891A034340084FEA4101F7D193
:1002500051B1914202D14FF0004105E002D24FF07E
:10026000010101E06FF0010103EBC450284430BCF0
:1002700000F04CBA2DE9FE4F804681EA0300C00F22
:100280000C46009021F0004123F00045B8EB02003D
:10029000A94105D24046214690461C460B460246DF
:1002A00023F00040104347D0270DC7F30A00C3F3E3
:1002B0000A510290401A019040286BDAC3F31300F0
:1002C00040F4801B0098924620B10023D2EB030A31
:1002D00063EB0B0B01985946C0F14002504600F009
:1002E000F4F906460D4650465946019A00F0FCF9CD
:1002F00010EB08006141002487EA115284EAE77399
:100300001A4340D0009A62B3019A012A4FEA075279
:1003100015DC001B61EB02014FF0004202EA0752BC
:10032000CDE90042001C41F5801132462B4600F019
:1003300033FA03B0BDE8F08F40462146F9E7001BD1
:1003400061EB0201001C41F5801300185B4120188D
:10035000A2F5001747EB030140EAD570B6196D41CD
:1003600011E06D084FEA360645EAC0754FEA0752BC
:10037000001B61EB0201001C41F5801149084FEAA6
:1003800030000019514132462B4603B0BDE8F04F12
:1003900000F0F3B90098012240000023D0EB0202E4
:1003A00063EBE073009821464FEAE074B8EB00007D
:1003B00061EB0401E9E783F000435BE781F0004172
:1003C00058E72DE9FE4F81EA030404F0004421F0D0
:1003D000004100944FF0000B23F0004350EA010469
:1003E0005ED052EA03045BD0C3F30A54C1F30A554A
:1003F0002C44A4F2F3340194A0FB0254C1F3130182
:1004000041F48011C3F3130343F4801301FB02444E
:1004100000FB034E840A970A44EA815447EA835753
:10042000A4FB076802958D0A05FB07854FEA932C0C
:1004300004FB0C542705029D4FEA065847EA16377D
:10044000B5EB08056EEB070C870E920E47EA811795
:1004500042EA8312A7FB0201B6EB0B0164EB000436
:100460002B0D43EA0C335E1844EB1C50DA46514620
:10047000E7FB0201C5F313044FEA0B3343EA1453BD
:100480004FEA0432019C43EA0603A4F10C040294EF
:10049000009CCDE900B400F07FF903B0BDE8F08F17
:1004A00000200146F9E72DE9F04D81EA030404F04C
:1004B000004B21F0004514464FF0000A23F00041A4
:1004C00050EA050220D054EA01021DD0C5F30A57B4
:1004D0000246C5F31303C1F31300C1F30A5640F4F7
:1004E000801543F48013A7EB0608101BD64608F2CC
:1004F000FD3873EB050002D308F1010801E0921802
:100500005B41B8F1000F03DA00200146BDE8F08D31
:1005100000204FF48011064684460EE0171B73EB53
:10052000050705D3121B63EB050306434CEA010CD8
:1005300049084FEA300092185B4150EA0107EDD1BB
:1005400052EA030012D082EA040083EA050108435C
:1005500005D0101BAB4106D20122002306E0002289
:100560004FF0004302E06FF0010253101AEB060057
:100570004CEB085110EB0A0041EB0B01BDE8F04DCC
:1005800000F0FBB896230022114600F0C8B80EB563
:10059000C10F80EAE0700844CA07002140F23343EB
:1005A0008DE80E000A460B4600F0F6F803B000BDD9
:1005B0000EB540F2334102910021CDE900110A4607
:1005C0000B4600F0E9F803B000BD00F0004230F047
:1005D00000400AD0C10D01F56071C0F3160042EA77
:1005E0000151C2084007114370470020014670477F
:1005F00001F0004330B421F0004150EA010206D07E
:100600000A0DA2F56072C1F31301002A02DC30BCAE
:1006100000207047440F44EAC104C100E01830BC18
:1006200000EBC25000F072B8002801DBC0F10040BE
:10063000002901DBC1F100418842704730B50B460B
:10064000014600202022012409E021FA02F59D4202
:1006500005D303FA02F5491B04FA02F52844151ED6
:10066000A2F10102F1DC30BD2DE9F05F054600206A
:1006700092469B4688460646814640241BE0284613
:1006800041464746224600F017F953465A46C01ADB
:10069000914110D311461846224600F016F82D1A43
:1006A00067EB01084F4622460120002100F00DF8BB
:1006B00017EB00094E41201EA4F10104DFDC48467F
:1006C00031462A464346BDE8F09F202A04DB203A03
:1006D00000FA02F1002070479140C2F1200320FA95
:1006E00003F3194390407047202A06DBCB17203ACA
:1006F00041FA02F043EAE07306E041FA02F3D04027
:10070000C2F1200291400843194670470029A8BF52
:100710007047401C490008BF20F00100704710B42A
:10072000B0FA80FC00FA0CF050EA010404BF10BCDF
:10073000704749B1CCF1200421FA04F411FA0CF10C
:1007400018BF012121430843A3EB0C01CB1D4FEA45
:1007500000614FEA102042BF002010BC704700EB40
:10076000C35010440029A4BF10BC7047401C49006E
:1007700008BF20F0010010BC704710B5141E73F1C3
:10078000000408DA401C41F1000192185B411A4351
:1007900001D120F0010010BD2DE9F04D92469B469D
:1007A00011B1B1FA81F202E0B0FA80F22032904643
:1007B000FFF78BFF04460F4640EA0A0041EA0B01AF
:1007C00053465A46084313D0114653EA010019D044
:1007D000C8F14002504600F06FF805460E465046FC
:1007E00059464246FFF771FF084305D0012004E057
:1007F00020463946BDE8F08D0020054346EAE07604
:100800002C4337430A986305E40AA0EB0800002252
:10081000FD0A44EA47540A3002D500200146E9E7C0
:10082000010510196941DDE9084500196941BDE874
:10083000F04DA2E7C1F30A52C1F3130140F2FF33B6
:1008400041F480119A4202DA00200146704740F2DA
:1008500033439A42A2F2334202DC524200F02CB8F7
:10086000FFF733BF30B5041E71F1000404DB4FF015
:100870000044404264EB0101141E73F1000405DBE7
:100880001C464FF00043524263EB0403994208BFF9
:10089000904230BD064C074D06E0E06840F0010391
:1008A00094E8070098471034AC42F6D3FFF722FCD7
:1008B000606D0008806D0008202A04DB203A21FAD0
:1008C00002F00021704721FA02F3D040C2F1200269
:1008D000914008431946704770B5044600252068CA
:1008E000806800F0010018B32068806820F00100E3
:1008F0002168886001F014F8054613E001F010F853
:10090000401B02280ED92068806800F0010048B121
:10091000A06A40F01000A062E06A40F00100E062CE
:10092000012070BD2068806800F001000028E5D13A
:100930000020F6E770B505466C6AA06A00F050002A
:10094000E0B9A06A40F40070A0622068806800F4FA
:100950006020B0F5602F0DD1207B58B9A06A20F43B
:100960008070A062A06A00F4805018B9A06A40F0BC
:100970000100A062204600F0A7FB03E0206A016BA3
:100980002846884770BD70B505466C6AA06A40F07D
:100990004000A062E06A40F00400E062204600F0FF
:1009A00095FB70BD70B50446656A284600F08DFB66
:1009B00070BD000038B50446002500200090206876
:1009C000806800F0010078BB2068806840F001007A
:1009D00021688860194800681949B0FBF1F000905F
:1009E00002E00098401E009000980028F9D100F025
:1009F00097FF054619E000F093FF401B022814D929
:100A00002068806800F0010078B9A06A40F010000A
:100A1000A062E06A40F00100E06200BF002084F8BC
:100A2000240000BF012038BD05E02068806800F088
:100A300001000028DFD00020F5E700005C00002066
:100A400040420F0010B51148114908604FF416508C
:100A5000486000210E4881610C2141610021016143
:100A6000C160816002F066F809480068C06840F023
:100A7000200007490968C86005480068C06840F060
:100A8000100003490968C86010BD00000044004020
:100A9000BC01002070B50446002504E0605D05F04F
:100AA00029FB681CC5B2605D0028F7D170BD00BF8E
:100AB000FEE7000000B585B000BF0C48806940F03B
:100AC00008000A4988610846806900F00800009023
:100AD00000BF00BF08200190002002900320049076
:100AE00001A9034800F07EFD05B000BD00100240E2
:100AF000000C014000B585B000BF0C48806940F093
:100B000008000A4988610846806900F008000090E2
:100B100000BF00BF08200190012002900320049034
:100B200001A9034800F05EFD05B000BD00100240C1
:100B3000000C014030B590F840500124AC40C56B2A
:100B40006C60046863604468102C04D10468A2607F
:100B50000468E16003E00468A1600468E26030BDFD
:100B60007047000010B504F04FFA01280CD1194865
:100B70000078012802D104F087FD2AE015480078AA
:100B800038BB05F03BFB24E002F046FF012005F0F6
:100B900057F94FF4B47004F051FA002005F050F901
:100BA0004FF4B47004F04AFA04F040FC88B105F048
:100BB00091F80CE002E0022002F0DCFD04F078FB8A
:100BC0002328F8D105F03EFA012800D100E0F1E732
:100BD00000BF10BD4E00002010B580210348FFF774
:100BE000BCFA00200249088010BD00004C02002021
:100BF0004800002070B50546002400BF00F0F6F85C
:100C000080B90DA10E48FFF7B3FA044654B13A215A
:100C10002046FFF7BFFA044614B1641C204670BD9D
:100C20000020FCE7052004F009FA281EA5F10101C7
:100C30008DB2E3D100BFF2E74950442C0000000020
:100C40004C02002010B52348234908604FF4165089
:100C500048600C212048416100210161C160816030
:100C600001F068FF1C480068C06840F020001A4985
:100C70000968C860FFF7B0FF03E04FF4FA7004F0B2
:100C8000DDF916A116A000F069F80028F5D103E0FF
:100C90004FF4FA7004F0D2F910A113A000F05EF83E
:100CA0000028F5D103E04FF4FA7004F0C7F912A15F
:100CB00013A000F053F80028F5D103E04FF4FA70C8
:100CC00004F0BCF917A119A000F048F80028F5D1EC
:100CD00010BD000000480040CC0200204F4B000037
:100CE00041540D0A0000000041542B43574D4F441E
:100CF000453D310D0A000000474F54204950000087
:100D000041542B43574A41503D22486F6E6F723118
:100D10003030222C2243632E323436383530402294
:100D20000D0A0000434F4E4E4543540041542B439F
:100D3000495053544152543D22544350222C226D69
:100D4000717474732E6865636C6F7564732E636F52
:100D50006D222C313838330D0A0000002DE9F041A6
:100D600004460D46C8262046FFF71EFA87B23946CC
:100D7000204605F0A5F90FE000F038F848B92946FB
:100D80000948FFF7F5F920B1FFF726FF0020BDE87D
:100D9000F0810A2004F052F9301EA6F10101CEB212
:100DA000EAD10120F3E700004C02002030B5B3B0D7
:100DB00005460C46FFF710FF224607A101A803F0E5
:100DC00029FC09A101A8FFF7C9FF18B92146284647
:100DD00005F076F933B030BD41542B4349505345AB
:100DE0004E443D25640D0A003E0000000A4800887C
:100DF00008B90120704708480088084909888842D6
:100E000003D1002004490880F4E70348008803491F
:100E100008800120EEE70000480000204A00002082
:100E200010B5012000F0D0FB10BD10B54FF480507C
:100E300000F0CAFB10BD10B5022000F0C5FB10BDCC
:100E400010B5042000F0C0FB10BD0000F8B504464A
:100E500000260020009000BF94F82400012801D152
:100E60000220F8BD012084F8240000BF2046FFF7CF
:100E700033FD06462046FFF79DFD0646002E69D14C
:100E8000A06A20F4885040F00200A062022000F026
:100E90001BFE34490968B1FBF0F04000009002E00D
:100EA0000098401E009000980028F9D120688068C2
:100EB00040F008002168886000F032FD054616E029
:100EC00000F02EFD401B0A2811D92068806800F030
:100ED000080060B1A06A20F0020040F01000A0629B
:100EE00000BF002084F8240000BF0120B9E720687B
:100EF000806800F008000028E2D12068806840F097
:100F000004002168886000F00BFD054616E000F043
:100F100007FD401B0A2811D92068806800F00400F2
:100F200060B1A06A20F0020040F01000A06200BF93
:100F3000002084F8240000BF012092E72068806828
:100F400000F004000028E2D1A06A20F0020040F086
:100F50000100A06200BF002084F8240000BF3046DA
:100F60007FE700005C00002038B502460023002027
:100F7000009000BF92F82400012801D1022038BD62
:100F8000012082F8240000BF4868072812D21068A8
:100F9000406B0C79641E04EB84051F24AC40A04315
:100FA0000D796D1E05EB85050C68AC402043146877
:100FB000606327E048680D2812D21068006B0C7936
:100FC000E41F04EB84051F24AC40A0430D79ED1F02
:100FD00005EB85050C68AC4020431468206311E0E4
:100FE0001068C06A0C790D3C04EB84051F24AC40EA
:100FF000A0430D790D3D05EB85050C68AC40204301
:101000001468E06208680A2812D31068C0680C7877
:101010000A3C04EB44050724AC40A0430D780A3D8C
:1010200005EB45058C68AC4020431468E0600FE098
:10103000106800690C7804EB44050724AC40A04319
:101040000D7805EB45058C68AC40204314682061A1
:101050000868102802D00868112827D1174C10689A
:10106000A0421ED11068806800F40000F0B910683A
:10107000806840F400001468A0600868102815D14A
:101080000F4800680F4CB0FBF4F000EB800040000C
:10109000009002E00098401E009000980028F9D1CE
:1010A00004E0906A40F020009062012300BF00201D
:1010B00082F8240000BF184661E7000000240140C8
:1010C0005C00002040420F007047704770470000EE
:1010D0002DE9F0410446002700250026A84614B952
:1010E0000120BDE8F081A06810B1207D00B100BFF3
:1010F000A06A30B90020E06284F82400204600F0A5
:1011000089F82046FFF7E8FB0746A06A00F01000C8
:10111000002873D1002F71D1A06A20F4885040F0CC
:101120000200A062E16960680843217B40EA410057
:101130000643A068B0F5807F02D0A068012802D1E4
:101140004FF4807000E000200543207D012811D17C
:10115000207B38B9A069401E4FF4006141EA40305D
:10116000054307E0A06A40F02000A062E06A40F07A
:101170000100E0622068406820F46940284321684B
:1011800048602068806821490840304321688860B1
:10119000A068B0F5807F02D0A068012802D14FF48A
:1011A000807000E00020B0F5807F03D1208A401ECF
:1011B0004FEA00582068C06A20F4700040EA080036
:1011C0002168C8622068806811490840B04208D18F
:1011D0000020E062A06A20F0020040F00100A0625E
:1011E00011E0A06A20F0020040F01000A062E06A66
:1011F00040F00100E062012705E0FFE7A06A40F04F
:101200001000A062012738466BE70000FDF7E1FF00
:10121000FE0E1FFF10B58AB00446184920688842A8
:1012200029D100BF1648806940F004001449886144
:101230000846806900F00400019000BF00BF00BFB5
:101240000846806940F4007088610846806900F4AF
:101250000070019000BF00BF02200690800308903C
:1012600006A800F013FC03200290039002A9054891
:1012700000F0B8F900BF0AB010BD00000024014022
:1012800000100240000801402DE9F04104460D46DF
:101290001646002757492068884203D056492068DF
:1012A000884205D15348001D006800F4702000E01A
:1012B000002000287ED100BF94F82400012802D12C
:1012C0000220BDE8F081012084F8240000BF204600
:1012D000FFF770FB0746002F6DD1A06A40F6016151
:1012E000884340F48070A06243492068884209D155
:1012F0004048001D006800F4702008B9012002E099
:10130000002000E0012078B1A06A20F48010A062E3
:101310002068406800F4806000B3A06A20F40050A8
:1013200040F48050A06219E0A06A40F48010A062EE
:1013300030492068884203D02F492068884205D16F
:101340002C48001D006800F4806000E0002028B1F7
:10135000A06A20F4005040F48050A062A06A00F41B
:10136000805020B1E06A20F00600E06201E0002039
:10137000E06200BF002084F8240000BF1F48216AFB
:1013800088621F48216AC8621E48216A08636FF09C
:101390000200216808602068806840F4807021683D
:1013A0008860226802F14C0133462A46206A00F028
:1013B0005FF801E01AE014E02068806800F4602023
:1013C000B0F5602F06D12068806840F4A000216845
:1013D00088600CE02068806840F480102168886094
:1013E00005E000BF002084F8240000E00127384613
:1013F00067E700000024014000280140350900088B
:10140000A5090008870900080146002209B9012042
:101410007047164B0868C01A1423B0FBF3F0800025
:10142000086412480838C863022081F8210008685F
:10143000026843F6F0708243D1E901031843CB6898
:1014400018430B6918434B6918438B691843CB69E0
:10145000184302430868026000208863012081F875
:101460002100002081F8200000BFD1E708000240E1
:101470002DE9F04104460D4616461F464FF0000880
:1014800000BF94F82000012802D10220BDE8F081BD
:10149000012084F8200000BF94F8210001282CD1FD
:1014A000022084F821000020A0632068006820F05A
:1014B0000100216808603B46324629462046FFF776
:1014C00039FBE06A30B12068006840F00E00216806
:1014D00008600BE02068006820F0040021680860C4
:1014E0002068006840F00A002168086020680068F1
:1014F00040F001002168086006E000BF002084F889
:10150000200000BF4FF002084046BFE770B5044618
:10151000002600252948007800B170BD012C00D1BB
:101520001026022C00D12026042C00D13026B4F540
:10153000805F00D140264FF48071214800F0E2F92D
:1015400001280CD10A2003F079FD00BF4FF480710F
:101550001B4800F0D7F90128F8D0012526E04FF408
:101560008041184800F0CEF901280CD10A2003F080
:1015700065FD00BF4FF48041124800F0C3F9002818
:10158000F8D1022512E04FF400510E4800F0BAF9EC
:1015900001280BD10A2003F051FD00BF4FF4005188
:1015A000084800F0AFF90028F8D1032526B11DB195
:1015B00046EA05000149087000BFAEE709000020B7
:1015C00000080140000C014010B5044604480068C2
:1015D000204020B1024804602046FFF797FF10BD6D
:1015E000140401402DE9F8470346002294466EE1B9
:1015F0004FF0010808FA02F4D1F8008008EA04006C
:10160000A0427DD1DFF8DCA2D1F80480A8EB0A0962
:10161000D0453AD014DCB8F1030F50D009DCB8F152
:10162000000F31D0B8F1010F1CD0B8F1020F49D131
:1016300020E0B8F1110F18D0B8F1120F42D11EE01E
:10164000B9F5881F25D006DCB9F5803F20D0B9F563
:10165000801F37D11AE0B9F5001F18D0B9F5041F63
:1016600030D117E0D1F80CC02DE0D1F80C8008F192
:10167000040C28E0D1F80C8008F1080C23E0D1F824
:101680000C8008F10C0C1EE000BF00BF00BF00BFC3
:1016900000BF00BFD1F80880B8F1000F02D14FF0B1
:1016A000040C0BE0D1F80880B8F1010F03D14FF022
:1016B000080C1C6102E04FF0080C5C6103E04FF085
:1016C000000C00E000BF00BFFF2801D8984601E0F1
:1016D00003F104084646FF2802D84FEA820803E0D7
:1016E000A2F108084FEA88084746D6F800804FF074
:1016F0000F0909FA07F928EA09080CFA07F900E0C6
:1017000088E048EA0908C6F80080D1F8048008F0AB
:101710008058B8F1805F7DD100BFDFF8CC81D8F868
:10172000188048F00108DFF8C091C9F81880C84651
:10173000D8F8188008F00108CDF8008000BF00BF7D
:101740004FEAB9384FEA920958F829504FEA82789F
:101750004FEA18794FF00F0808FA09F825EA08054A
:10176000DFF88881434502D14FF0000816E0DFF82A
:101770008081434502D14FF001080FE0DFF874810A
:10178000434502D14FF0020808E0DFF86C81434581
:1017900002D14FF0030801E04FF004084FEA8279CC
:1017A0004FEA197908FA09F848EA0505DFF84C818B
:1017B0004FEA920948F82950D1F8048008F48018BB
:1017C000B8F5801F0AD1DFF83881D8F8008048EAE0
:1017D0000008DFF82C91C9F8008009E0DFF82081CB
:1017E000D8F8008028EA0008DFF81491C9F80080D2
:1017F000D1F8048008F40018B8F5001F10D1DFF804
:10180000008108F10408D8F8008048EA0008DFF8F1
:10181000F09000E05AE009F10409C9F800800DE0F9
:10182000DFF8DC8008F10408D8F8008028EA000816
:10183000DFF8CC9009F10409C9F80080D1F80480E0
:1018400008F40038B8F5003F0ED1DFF8B480A8F1F5
:101850000408D8F8008048EA0008DFF8A490A9F14D
:101860000409C9F800800DE0DFF89480A8F10408AD
:10187000D8F8008028EA0008DFF88490A9F104096C
:10188000C9F80080D1F8048008F48038B8F5803FAA
:101890000ED1DFF86C80A8F10808D8F8008048EA7B
:1018A0000008DFF85C90A9F10809C9F800800DE094
:1018B000DFF84C80A8F10808D8F8008028EA000872
:1018C000DFF83C90A9F10809C9F80080521CD1F852
:1018D000008028FA02F8B8F1000F7FF489AEBDE865
:1018E000F8870000000011100010024000080140BD
:1018F000000C0140001001400014014008000140AC
:1019000008040140024693680B400BB1012000E03F
:10191000002070470AB1016101E00B0403617047C8
:10192000014800687047000000000020034800687C
:101930000349097808440149086070470000002005
:101940000800002010B50848006840F01000064963
:101950000860032000F080F80F2000F007F800F086
:101960002BF8002010BD00000020024070B5044696
:101970000E4800784FF47A71B1FBF0F00C49096819
:10198000B1FBF0F5284600F063FF08B1012070BDFF
:10199000102C07D200222146501E00F01EF80548E8
:1019A000046001E00120F2E70020F0E708000020D9
:1019B0005C00002004000020704701460846002813
:1019C00009DB00F01F0301229A4043099B0003F149
:1019D000E023C3F8002100BF70472DE9F05F804687
:1019E0000D461646002702F029FE074639462A46CC
:1019F000334601F00700C0F1070ABAF1040F02D91B
:101A00004FF0040A01E0C0F1070AD14600F1040AD0
:101A1000BAF1070F02D24FF0000A01E0A0F1030A69
:101A2000D4464FF0010A0AFA09FAAAF1010A0AEAB1
:101A3000020A0AFA0CFA4FF0010B0BFA0CFBABF19D
:101A4000010B0BEA030B4AEA0B042146404602F065
:101A5000FDFDBDE8F09F000000BF00F00702064B4F
:101A600019684FF6FF031940044B0B4343EA022168
:101A7000014B196000BF70470CED00E00000FA0553
:101A8000012001490862704700000E420021012236
:101A900002600C4A126A02F440714160026842F02E
:101AA00002020260074A526802F440428260026801
:101AB00042F010020260034A526802F48002C260DF
:101AC00070470000001002402DE9F04706464FF035
:101AD0000008002500270024A146012E31D0022E47
:101AE00056D0102E5FD132484468006800F08070F4
:101AF00008B33048C4F38341475C04F4803078B1C4
:101B00002B484068C0F340402B4911F8008004F492
:101B1000803040B12948B0FBF8F000FB07F502E047
:101B2000274807FB00F52248406800F48000B0F524
:101B3000800F01D1A94603E068000321B0FBF1F951
:101B400032E01B48046A04F44070B0F5807F05D190
:101B500004F0020010B14FF4004918E004F44070A2
:101B6000B0F5007F07D11248406A00F0020010B1C2
:101B700049F640490BE004F44070B0F5407F06D1CF
:101B80000B48006800F4003008B14FF224490BE024
:101B900000F08CF906494968C1F38131491C4900BC
:101BA000B0FBF1F900E000BF00BF4846BDE8F08798
:101BB00000100240726200088262000800127A007F
:101BC00000093D00F8B5044600260025207800F005
:101BD000010000286BD000274348C06900F0805006
:101BE00070B900BF4048C06940F080503E49C861AC
:101BF0000846C06900F08050009000BF00BF012778
:101C00003A48006800F48070B0B93848006840F481
:101C1000807036490860FFF783FE064606E0FFF74E
:101C20007FFE801B642801D90320F8BD2F4800687F
:101C300000F480700028F2D02B48006A00F4407550
:101C40002DB3A08800F44070A84220D02648006A36
:101C500020F44075012026490860002008602248D1
:101C6000056205F0010090B1FFF75AFE064608E054
:101C7000FFF756FE801B41F28831884201D90320CC
:101C8000D3E71948006A00F002000028F0D0164897
:101C9000006A20F440706168084313490862012F0C
:101CA00004D10846C06920F08050C86100BF207888
:101CB00000F00200022807D10B48406820F44040A1
:101CC000A168084308494860207800F010001028F7
:101CD00007D10548406820F48000E16808430249C4
:101CE00048600020A1E700000010024000700040A2
:101CF0004004424270B504460D460CB9012070BD47
:101D00005A48006800F00700A8420ED25748006801
:101D100020F007002843554908600846006800F095
:101D20000700A84201D00120E9E7207800F0020076
:101D300002281DD1207800F00400042805D14C4869
:101D4000406840F4E0604A494860207800F00800AC
:101D5000082805D14648406840F46050444948602E
:101D60004348406820F0F000A168084340494860BB
:101D7000207800F0010078B36068012806D13C4863
:101D8000006800F4003090B90120B8E760680228CC
:101D900006D13748006800F0007040B90120AEE776
:101DA0003348006800F0020008B90120A7E7304876
:101DB000406820F00300616808432D494860FFF740
:101DC000AFFD064609E0FFF7ABFD801B41F288310D
:101DD000884202D9032092E707E02548406800F0D6
:101DE0000C006168B0EB810FEDD12048006800F075
:101DF0000700A8420ED91D48006820F007002843BC
:101E00001A4908600846006800F00700A84201D09F
:101E1000012074E7207800F00400042807D114485A
:101E2000406820F4E060E168084311494860207888
:101E300000F00800082808D10D48406820F46050E0
:101E4000216940EAC1000A49486000F03FF80849AA
:101E50004968C1F30311074A515CC840064908604C
:101E600006480068FFF782FD002048E70020024096
:101E700000100240346C00085C00002004000020C8
:101E800001480068704700005C00002000B5FFF7C3
:101E9000F7FF04494968C1F30221034A515CC84075
:101EA00000BD000000100240446C000800B5FFF7C0
:101EB000E7FF04494968C1F3C221034A515CC840A5
:101EC00000BD000000100240446C000870B5002105
:101ED0000022002400230020134D696801F00C0546
:101EE000F5B1042D02D0082D19D101E00F4819E0F9
:101EF0000F4DC1F38346AB5D01F4803555B10A4DFA
:101F00006D68C5F340450B4E725D084D5D43B5FBF2
:101F1000F2F402E0084D03FB05F4204602E000BFA6
:101F2000024800BF00BF70BD0010024000127A00DE
:101F3000606200087062000800093D00F8B50446C0
:101F40000CB90120F8BD207800F00100002878D0FD
:101F5000F848406800F00C0004280CD0F5484068B0
:101F600000F00C00082811D1F248406800F48030DD
:101F7000B0F5803F0AD1EF48006800F40030002837
:101F80005FD0606800285CD10120DBE700BF60689B
:101F9000B0F5803F06D1E748006840F48030E5495D
:101FA000086028E0606858B9E248006820F4803092
:101FB000E04908600846006820F4802008601AE0C4
:101FC0006068B0F5A02F0BD1DA48006840F480209B
:101FD000D84908600846006840F4803008600AE08C
:101FE000D448006820F48030D24908600846006870
:101FF00020F48020086000BF606888B1FFF790FC83
:10200000054606E0FFF78CFC401B642801D903203D
:1020100098E7C848006800F400300028F2D010E0CB
:10202000FFF77EFC054606E0FFF77AFC401B6428BC
:1020300001D9032086E7BF48006800F4003000287B
:10204000F2D1207800F00200022857D1B948406848
:1020500000F00C0050B1B748406800F00C000828B0
:1020600018D1B448406800F4803098B9B14800688D
:1020700000F0020020B12069012801D0012061E7B1
:10208000AC48006820F0F800616940EAC100A94945
:10209000086033E02069E8B10120A7490860FFF734
:1020A0003FFC054606E0FFF73BFC401B022801D938
:1020B000032047E79F48006800F002000028F2D0A4
:1020C0009C48006820F0F800616940EAC100994925
:1020D000086013E0002098490860FFF721FC0546DE
:1020E00006E0FFF71DFC401B022801D9032029E769
:1020F0009048006800F002000028F2D1207800F03B
:10210000080008282DD1A069B8B101208B490860CA
:10211000FFF706FC054606E0FFF702FC401B02281D
:1021200001D903200EE78348406A00F0020000282E
:10213000F2D0012001F082FD13E000207F49086009
:10214000FFF7EEFB054606E0FFF7EAFB401B02281F
:1021500001D90320F6E67748406A00F00200002823
:10216000F2D1207800F00400042873D100277148D0
:10217000C06900F0805070B900BF6E48C06940F07F
:1021800080506C49C8610846C06900F080500090DA
:1021900000BF00BF01276A48006800F48070B0B932
:1021A0006748006840F4807065490860FFF7B8FB35
:1021B000054606E0FFF7B4FB401B642801D9032065
:1021C000C0E65F48006800F480700028F2D000BFCD
:1021D000E068012806D15748006A40F001005549DF
:1021E000086227E0E06858B95248006A20F0010010
:1021F000504908620846006A20F00400086219E0AD
:10220000E06805280BD14B48006A40F004004949BA
:1022100008620846006A40F0010008620AE045488A
:10222000006A20F00100434908620846006A20F075
:102230000400086200BFE068A0B1FFF771FB05462B
:1022400009E0FFF76DFB401B41F28831884202D95B
:10225000032077E622E03748006A00F002000028F9
:10226000EFD012E0FFF75CFB054608E0FFF758FBF4
:10227000401B41F28831884201D9032062E62D4893
:10228000006A00F002000028F0D1012F05D1294892
:10229000C06920F080502749C86100BFE069C8B319
:1022A0002448406800F00C00082860D0E06902284B
:1022B00048D1002020490866FFF732FB054606E0BA
:1022C000FFF72EFB401B022801D903203AE61948EC
:1022D000006800F000700028F2D1206AB0F5803F5D
:1022E00007D11448406820F40030A1680843114920
:1022F0004860D4E9080108430E49496821F4741183
:1023000008430C49486001200B490866FFF708FBA9
:10231000054607E03DE0FFF703FB401B022801D91B
:1023200003200FE60348006800F000700028F2D098
:102330002FE00000001002400000424280044242B0
:1023400000700040002014490866FFF7E9FA0546CE
:1023500006E0FFF7E5FA401B022801D90320F1E56A
:102360000E48006800F000700028F2D111E0E0692A
:10237000012800D1E6E50948466806F48031206A64
:10238000814204D106F47011606A814201D00120BB
:10239000D8E50020D6E500000000424200100240CF
:1023A0007047000010B5044620680068C0F3400084
:1023B00068B120684068C0F3400040B12046FFF794
:1023C000EFFF2068406820F00200216848604FF469
:1023D0000030024908600120607410BD14040140FF
:1023E000F8B505460C4616460020009005B10CB91C
:1023F0000120F8BD00226946284600F01AF808B10D
:102400000120F6E7287B2070E87BE070687B607035
:10241000A87BA0705EB1E07801F037FCE0706078D6
:1024200001F033FC6070A07801F02FFCA070002058
:10243000DFE72DE9F04780460C469146002500264F
:10244000AA460027B8F1000F00D014B90120BDE85A
:10245000F087D8F800004068C0F3800008B1012080
:10246000F5E7404601F0D8FC05464FF46160B5FB46
:10247000F0F7B5FBF0F100FB11503C21B0FBF1F09F
:1024800060704FF46160B5FBF0F100FB11503C212E
:10249000B0FBF1F201FB1200A070182F39D3182005
:1024A000B7FBF0FAB7FBF0F100FB1170207040466B
:1024B00001F0A6FC0646701C18B1AE4201D9761B8D
:1024C00001E04FF0FF360AEB4A00C000C0EB4011BC
:1024D000C1EB0020A5EB00152946404601F00FFD99
:1024E00008B10120B3E7701C38B12E443146404694
:1024F00001F0EEFC40B10120A9E73146404601F071
:10250000E7FC08B10120A2E75146404601F0CAFBB2
:1025100000E02770B9F1000F0BD0207801F0B5FB77
:102520002070607801F0B1FB6070A07801F0ADFB25
:10253000A07000208BE7000070B5044600250CB9A0
:10254000012070BD607C20B900202074204600F07E
:1025500053F802206074204600F05AF918B10420A4
:1025600060740120EDE7204601F0F7FB18B104206C
:1025700060740120E5E72068406820F007002168CA
:102580004860A06828B11B48006820F00100194984
:1025900008601848001F006820F46070A1680843B4
:1025A0001449091F08606068401C08B1656809E0AB
:1025B0000120FFF789FA05461DB904206074012047
:1025C000BFE76D1EC5F3034021688860A8B221688B
:1025D000C860204601F0DEFB18B1042060740120C1
:1025E000AFE70021E17301216173A17301206074E1
:1025F0000020A6E7306C004010B58EB004460120E4
:102600000D4908600820049001200A9000200B90DA
:1026100004A8FFF793FC0120009040020190684657
:10262000FFF7D0FA012211462920FFF7D6F9292019
:10263000FFF7C3F90EB010BD3C0442422DE9F0474C
:1026400004460D46904600260027B14604B115B950
:102650000120BDE8F08700BF207C012801D10220C5
:10266000F7E70120207400BF02206074B8F1000F6A
:1026700006D1E978E17369786173A978A1730BE0F9
:10268000E87801F0F7FAE073687801F0F3FA607324
:10269000A87801F0EFFAA073A27B617BE07B01F0E8
:1026A000D5FB2073207B2870204601F0B5FB064641
:1026B0004FF46160B6FBF0F9B9F1180F2FD918206B
:1026C000B9FBF0F000EB4000C000C0EB4011C1EBE3
:1026D0000020A6EB00163146204601F010FC38B170
:1026E0000420607400BF0020207400BF0120B0E708
:1026F000204601F085FB0746781C80B1B7420ED218
:102700000B4807443946204601F0E2FB38B104206B
:10271000607400BF0020207400BF012099E70120F1
:10272000607400BF0020207400BF00BF91E700006C
:10273000805101002DE9F04704460D4690460026E1
:10274000002704B115B90120BDE8F08700BF207C47
:10275000012801D10220F7E70120207400BF0220E8
:102760006074B8F1000F0BD128784FF461614843D1
:102770006978C1EB011100EB8100A978461812E0DD
:10278000287801F077FA4FF4616100FB01F968786D
:1027900001F070FAC0EB001009EB8009A87801F095
:1027A00069FA09EB00063146204601F0A8FB38B172
:1027B0000420607400BF0020207400BF0120C3E724
:1027C0002068406820F0050021684860204601F03C
:1027D00017FB0746781C80B1B7420ED20B4807445E
:1027E0003946204601F074FB38B10420607400BF04
:1027F0000020207400BF0120A6E70120607400BF04
:102800000020207400BF00BF9EE70000805101003F
:1028100070B5044600250CB9012070BD20684068E1
:1028200020F0080021684860FFF77AF8054607E0C5
:10283000FFF776F8401BB0F57A7F01D90320ECE76B
:102840002068406800F008000028F1D00020E4E78C
:1028500070B504462546681EB0F1807F01D3012083
:102860000FE0681E4FF0E02148610F214FF0FF306C
:1028700001F0ECFE00204FF0E021886107200861A4
:10288000002070BD2DE9F04104460D461646002794
:1028900000BF94F83C00012802D10220BDE8F0817D
:1028A000012084F83C0000BF36B1042E1BD0082E56
:1028B00031D00C2E5ED145E02946206801F0DCFBCA
:1028C0002068806940F0080021688861206880697C
:1028D00020F0040021688861206880692969084324
:1028E0002168886148E02946206801F0F5FB2068EE
:1028F000806940F40060216888612068806920F464
:1029000080602168886120688069296940EA012027
:102910002168886130E02946206801F011FC2068B8
:10292000C06940F008002168C8612068C06920F0D3
:1029300004002168C8612068C069296908432168CA
:10294000C86119E02946206801F02EFC2068C069A2
:1029500040F400602168C8612068C06920F480608C
:102960002168C8612068C069296940EA012021689E
:10297000C86101E0012700BF00BF00BF002084F84C
:102980003C0000BF384689E710B504460CB9012069
:1029900010BD94F83D0028B9002084F83C00204682
:1029A00000F026F8022084F83D00211D206801F087
:1029B00017FB012084F8460000BF84F83E00012187
:1029C0003F200155402001554120015500BF00BF67
:1029D000012084F842004320015544200155452040
:1029E000015500BF012084F83D000020D0E7000021
:1029F00010B586B0044617492068884228D100BF28
:102A00001548C06940F004001349C8610846C06910
:102A100000F00400019000BF00BF00BF08468069BD
:102A200040F0080088610846806900F008000190C5
:102A300000BF00BF4FF440700290022003900120BD
:102A400004900320059002A90448FEF7CBFD00BFC7
:102A500006B010BD0008004000100240000C01400C
:102A600070B504460D4615B994F83E000BE0042DF0
:102A700002D13F20005D06E0082D02D14020005D1C
:102A800001E04120005D012801D0012070BD1DB989
:102A9000022084F83E000EE0042D03D102213F20E5
:102AA000015508E0082D03D102214020015502E024
:102AB00002214120015501222946206801F0CAFA6D
:102AC00019492068884201D1012000E0002028B186
:102AD0002068406C40F40040216848641249206836
:102AE00088420BD02068B0F1804F07D00F49206892
:102AF000884203D00E49206888420CD12068806843
:102B000000F00706062E0CD02068006840F0010097
:102B10002168086005E02068006840F00100216835
:102B200008600020B2E70000002C014000040040D3
:102B30000008004010B504460CB9012010BDA06982
:102B400000B100E000BF94F8410028B9002084F8EB
:102B50004000204600F02AF8242084F84100206834
:102B6000C06820F400502168C860204601F05EFB78
:102B70002068006920F4904021680861206840695D
:102B800020F02A00216848612068C06840F40050A5
:102B90002168C86000206064202084F8410084F827
:102BA00042000020606300BFC8E7000010B586B097
:102BB00004465D49206888423AD100BF5B48C0693D
:102BC00040F400305949C8610846C06900F400303B
:102BD000019000BF00BF00BF0846806940F00400BC
:102BE00088610846806900F00400019000BF00BFC2
:102BF00004200290022003900120049003200590FD
:102C000002A94B48FEF7EEFC08200290002003903A
:102C100002A94748FEF7E6FC0520FEF71DFF01224A
:102C200011462620FEF7D9FE2620FEF7C6FE79E0E3
:102C300040492068884238D100BF3C48806940F450
:102C400080403A4988610846806900F480400190DC
:102C500000BF00BF00BF0846806940F004008861E3
:102C60000846806900F00400019000BF00BF4815CD
:102C7000029002200390012004900320059002A9F5
:102C80002B48FEF7AFFC4FF48060029000200390C9
:102C900002A92748FEF7A6FC012211462520FEF7CF
:102CA0009CFE2520FEF789FE3CE0234920688842EF
:102CB00038D100BF1D48C06940F480201B49C8615D
:102CC0000846C06900F48020019000BF00BF00BF2B
:102CD0000846806940F0080088610846806900F075
:102CE0000800019000BF00BF081502900220039069
:102CF000012004900320059002A91048FEF772FC01
:102D00004FF4006002900020039002A90B48FEF7E8
:102D100069FC012211462720FEF75FFE2720FEF7FF
:102D20004CFE00BF06B010BD004400400010024041
:102D3000000801400038014000480040000C0140FC
:102D40002DE9F84F04460E46174699464FF0000A03
:102D500094F8420020284FD106B117B90120BDE8F0
:102D6000F88F00206064222084F842000020206355
:102D7000FEF7D6FD8246A785E785A068B0F5805F9F
:102D800004D1206910B90025B04602E035464FF065
:102D9000000829E05346002220212046CDF800906B
:102DA00001F0C2FA08B10320D9E745B920684068AC
:102DB000C0F30800A8F8000008F1020811E0A068BC
:102DC000B0F5805F03D0A06828B9206918B92068E1
:102DD0004068287004E02068406800F07F00287098
:102DE0006D1CE08D401EE085E08D0028D2D12020B2
:102DF00084F842000020B2E70220B0E72DE9F84F46
:102E000004460E46174699464FF0000A94F84100D2
:102E100020284AD106B117B90120BDE8F88F00205B
:102E20006064212084F84100FEF77AFD8246A78481
:102E3000E784A068B0F5805F04D1206910B900254F
:102E4000B04602E035464FF000081BE05346002232
:102E500080212046CDF8009001F066FA08B10320E9
:102E6000DBE745B9B8F80000C0F308002168486006
:102E700008F1020803E02878216848606D1CE08CA6
:102E8000401EE084E08C0028E0D15346002240211F
:102E90002046CDF8009001F047FA08B10320BCE7C6
:102EA000202084F841000020B7E70220B5E70000A9
:102EB00010B5FDF71FFE00BF012208211648FEF7DE
:102EC00029FD00BF00BF002208211348FEF722FDA4
:102ED00000BF142002F0B2F800BF012208210E4802
:102EE000FEF718FD00BFFDF7E5FD00BF08210A4809
:102EF000FEF708FD0028F9D100BF08210648FEF7BB
:102F000001FD0028F9D000BF08210348FEF7FAFCB4
:102F10000028F9D110BD0000000C014000BFFEE701
:102F200030B587B005460C4612481349086008467C
:102F30004460C5600021816001218161FFF724FDAB
:102F400060200090002001900290082269460A4803
:102F5000FFF798FC0C2269460748FFF793FC08210D
:102F60000548FFF77DFD0C210348FFF779FD07B009
:102F700030BD0000000800400402002010B50446E7
:102F8000207B012802D1206802F060F90020206037
:102F90006060A060207310BD0246002301230DE095
:102FA00002F07F000870D2092AB1087840F0800052
:102FB0000870491C01E0184670475B1C042BEFDDCC
:102FC0004FF0FF30F8E770B504460E460025206844
:102FD00098B901202073304602F0ECFB2060206895
:102FE000E0B100206060A66003E000202168485541
:102FF0006D1CA068A842F8D810E00220207303E0FE
:103000000020216848556D1CA068A842F8D800200F
:103010006060A068B04201D20020206070BD000056
:103020002DE9FF4F85B082468B469146179C0025BF
:10303000002004900F2703904846FDF7B5F80FFADB
:1030400080F85046FDF7B0F800B202905846FDF700
:10305000ABF800B20190B9F1000F03D1012009B023
:10306000BDE8F08F08F10200384487B2129808B129
:1030700045F00205149878B145F004051498FDF761
:1030800093F8C0B204901598FDF78EF801460498A5
:10309000001D0844384487B2139820B1012804D099
:1030A000022808D104E000BF07E045F00C0504E069
:1030B00045F0140501E00220D1E700BF169808B1E1
:1030C00045F02405BAF1000F02D0BBF1000F01D189
:1030D0000320C4E745F0C0055046FDF765F80646F5
:1030E0005846FDF761F83044001D384487B2394630
:1030F0002046FFF768FF206808B90420AFE739468B
:103100002068FDF72AF810216268501C6060206872
:103110008154D4E90023D118781FFFF73DFF00B296
:1031200003900398002804DA2046FFF727FF0520C4
:1031300095E7616803980844606000216268501C4C
:1031400060602068815404216268501C60602068BF
:1031500081544D216268501C606020688154512167
:103160006268501C60602068815454216268501C61
:103170006060206881546268501C606020688154DF
:1031800004216268501C6060206881546168481C9A
:103190006060206845540898010A6268501C6060AD
:1031A000206881540898C1B26268501C6060206831
:1031B0008154C8F307216268501C60602068815404
:1031C0006268501C6060206800F80280D4E9001238
:1031D000881842464946FCF7FBFF6068404460603F
:1031E00005F00400B8B30026159808B938A015906A
:1031F0001498FCF7D9FF86B2310A6268501C6060EF
:10320000206881546268501C606020688654D4E94C
:103210000012881832461499FCF7DAFF60683044CF
:1032200060601598FCF7C0FF86B2310A6268501CD6
:103230006060206881546268501C60602068865419
:10324000D4E90012881832461599FCF7C1FF60686E
:103250003044606000BF05F08000C8B15046FCF704
:10326000A3FF86B2310A6268501C606020688154F6
:103270006268501C606020688654D4E90012881887
:1032800032465146FCF7A4FF60683044606000BFDE
:1032900005F04000C8B15846FCF786FF86B2310AF7
:1032A0006268501C6060206881546268501C6060D5
:1032B00020688654D4E90012881832465946FCF733
:1032C00087FF60683044606000BF0020C7E60000F0
:1032D000000000002DE9F84F8046894693469A4643
:1032E0000D9C00270025002000900026B8F1000F5B
:1032F00002D10120BDE8F88F00250AE019F8050089
:10330000232803D019F805002B2801D10220F1E76A
:103310006D1C19F805000028F0D146F030060B9816
:1033200008B146F0010605EB0A00871C0A9820B197
:10333000012804D002280AD105E000BF09E046F0C8
:103340000206BF1C05E046F00406BF1C01E0032096
:10335000D0E700BFF91C2046FFF735FE206808B90A
:103360000420C7E7F91C2068FCF7F7FE6168481CD9
:10337000606020684654D4E9000281183846FFF79F
:103380000BFE00900098002804DA2046FFF7F6FDB7
:103390000520AFE76168009808446060C5F3072125
:1033A0006268501C6060206881546268501C6060D4
:1033B00020688554D4E9001288182A464946FCF74B
:1033C00007FF6068284460600A9860B14FEA1821DE
:1033D0006268501C6060206881546268501C6060A4
:1033E000206800F80280BBF1000F09D0D4E9001278
:1033F000881852465946FCF7EBFE606850446060FE
:10340000002077E72DE9FF4106460C46174698460F
:103410000A9D01200021009123460A46CDE90205BC
:10342000019105A10A20FFF755FF18B1012004B052
:10343000BDE8F0810020FAE7247379732F41333718
:1034400034666E593164562F64687431315F30319F
:103450002F7468696E672F70726F70657274792F40
:10346000706F737400000000F0B504460D462646E8
:10347000012300201060002114E0775C07F07F0733
:10348000106807FB03001060705C00F0800008B952
:10349000481CF0BDDB01B3F5001F02D36FF0010043
:1034A000F7E7491CA942E8DB4FF0FF30F1E701469E
:1034B0004878022801D001207047887810B18878B8
:1034C000012801D1C878F7E7FF20F5E7F8B50446F1
:1034D000FF2720780511012D01DB0E2D01DD384677
:1034E000F8BD032D24D1002000906A460421601C01
:1034F000FFF7BAFF2044461C0098022803D3207827
:1035000000F0010008B1FF20EAE77078317840EA66
:103510000120801C0099884201D9FF20E0E706A124
:10352000B01CFCF725FE08B10F2700E0032700E0E0
:103530002F463846D4E7000024637265710000000E
:1035400000BFFEE730B5E9B0054690220E4945A818
:10355000FCF7EAFD0D4803C8CDE902010C4803C899
:10356000CDE900010B4845A90CC805A801F052F8A7
:1035700005A8FCF719FE84B2224605A92846FCF7E7
:10358000D3FDE0B269B030BDD06C0008400000202F
:103590003800002030000020704770B500240EE095
:1035A0000021204600F002F9002504E0002000F090
:1035B0008FFA681CC5B2802DF8DB601CC4B2082CE1
:1035C000EEDB70BD00B585B000BF1248806940F0E9
:1035D0000800104988610846806900F008000090E2
:1035E00000BF00BFC0200190112002900020039076
:1035F0000320049001A90848FDF7F4FF01224021AF
:103600000548FEF787F9012280210348FEF782F979
:1036100005B000BD00100240000C014070B5054629
:10362000002413E08020204100EA050280210E489A
:10363000FEF770F9012240210B48FEF76BF90022DA
:1036400040210948FEF766F9601CC4B2082CE9DB8A
:10365000012240210448FEF75DF900224021024882
:10366000FEF758F970BD0000000C014010B50122B2
:1036700080210948FEF74EF9012240210648FEF755
:1036800049F9002280210448FEF744F90022402134
:103690000148FEF73FF910BD000C014010B50022B3
:1036A00080210748FEF736F9012240210448FEF741
:1036B00031F9012280210248FEF72CF910BD0000EB
:1036C000000C014070B5002406E0002500E06D1CF0
:1036D000B5F57A7FFBD3641CB4F57A7FF5D3FFF799
:1036E00071FFAE2000F0E4F9D52000F0E1F9802070
:1036F00000F0DEF9A82000F0DBF93F2000F0D8F957
:10370000D32000F0D5F9002000F0D2F9402000F0DD
:10371000CFF9A12000F0CCF9C82000F0C9F9DA20D7
:1037200000F0C6F9122000F0C3F9812000F0C0F9C2
:10373000CF2000F0BDF9D92000F0BAF9F12000F057
:10374000B7F9DB2000F0B4F9302000F0B1F9A42083
:1037500000F0AEF9A62000F0ABF98D2000F0A8F93A
:10376000142000F0A5F9AF2000F0A2F9FFF715FF33
:1037700070BD000010B5044602A20121204600F0F1
:1037800037F910BD202020202020202020202020BC
:10379000202020200000000010B50246012000E09B
:1037A00050430B1EA1F10101FAD110BD70B50546C1
:1037B0000C4645F0B00000F07BF9102141EA1410EE
:1037C00000F076F904F00F0000F072F970BD00000F
:1037D0002DE9F04105460E461746721ED206110E1F
:1037E0006A1E5206100EFFF7E1FF002409E0A7F160
:1037F0002001134A02EB0111085D00F069F9601C19
:10380000C4B2082CF3DB721ED206110E6A1E01230D
:1038100003EB4202D0B2FFF7C9FF00240BE0A7F18F
:103820002001074A02EB011204F10801505C00F08C
:103830004FF9601CC4B2082CF1DBBDE8F081000038
:10384000446600082DE9F04105460E461746721EF3
:10385000D206110E6A1E5206100EFFF7A7FF0024B3
:1038600007E0124901EB4711085D00F031F9601CD7
:10387000C4B2102CF5DB721ED206110E6A1E012393
:1038800003EB4202D0B2FFF791FF002409E00749A1
:1038900001EB471204F11001505C00F019F9601CB3
:1038A000C4B2102CF3DBBDE8F0810000C462000854
:1038B0002DE9F04105460E461746721ED206110E3E
:1038C0006A1E5206100EFFF771FF002407E012492E
:1038D00001EB4711085D00F0FBF8601CC4B2102C2E
:1038E000F5DB721ED206110E6A1E012303EB4202A3
:1038F000D0B2FFF75BFF002409E0074901EB471254
:1039000004F11001505C00F0E3F8601CC4B2102C0C
:10391000F3DBBDE8F0810000A46500082DE9F0416B
:1039200006460F4615467A1ED206110E721E520624
:10393000100EFFF73BFF00240FE035B11A4901EBF1
:103940004511085D00F0C4F805E0174901EB451189
:10395000085D00F0BDF8601CC4B2102CEDDB7A1ECF
:10396000D206110E721E012303EB4202D0B2FFF702
:103970001DFF002413E045B10B4901EB451204F192
:103980001001505C00F0A4F807E0074901EB451274
:1039900004F11001505C00F09BF8601CC4B2102CC4
:1039A000E9DBBDE8F0810000846200082DE9F04702
:1039B00080460E4617461D46002415E0281B411E72
:1039C0000A20FFF7E9FEB7FBF0F00A21B0FBF1F2A5
:1039D00001FB120000F130093019C1B24A464046DD
:1039E000FFF7F6FE601CC4B2AC42E7DBBDE8F0872F
:1039F0002DE9F04107460E461546002407E02A5DF2
:103A00003019C1B23846FFF7E3FE601CC4B2285D2E
:103A10000028F4D1BDE8F08110B5244802F032F856
:103A20002248007800F5FA62042302210120FFF702
:103A3000BDFF002206210120FFF73AFF1B48427814
:103A4000022308210120FFF7B1FF01220A211046BD
:103A5000FFF72EFF1548827802230C210120FFF783
:103A6000A5FF02220E210120FFF722FF0F48C27896
:103A7000022304211846FFF799FF3A22062102206B
:103A8000FFF7A6FE09480279022307211846FFF72F
:103A90008DFF3A2209210220FFF79AFE034842795E
:103AA00002230A211846FFF781FF10BD4F000020B6
:103AB00010B50446FFF7DAFD7820FFF7AFFD0020D0
:103AC000FFF7ACFD2046FFF7A9FDFFF7E7FD10BDAE
:103AD00010B50446FFF7CAFD7820FFF79FFD402090
:103AE000FFF79CFD2046FFF799FDFFF7D7FD10BDBE
:103AF00030B58BB000200790089009900A900125FE
:103B000007A8002102910391CDE904100846012184
:103B10000B0218A2CDE9001019491AA0FFF780FA8C
:103B200020BB089A91B20798FDF740F9FA20FDF7FB
:103B300061F80446BCB12046FFF7C8FC022812D148
:103B40002046FFF7B4FC06280BD2DFE800F003059F
:103B500006070809002505E004E003E002E001E0B3
:103B600000E000BF00BF07A8FFF708FA28460BB027
:103B700030BD000064687431315F303100000000F6
:103B80004C6C000841333734666E5931645600007E
:103B900030B5B7B000203390349035903690002483
:103BA0000025C82101A8FCF7D8FA01A8FFF7CAFC34
:103BB0000446E4B133A805230022214600900DA05D
:103BC000FFF720FC98B908E001A8415D349A501C29
:103BD000349033988154681C05B2A542F4DB349AC2
:103BE00091B23398FDF7E2F833A8FFF7C7F937B081
:103BF00030BD000064687431315F30310000000076
:103C00001FB5002002900390062002A900231A4647
:103C1000CDE900101946184600F067FC0622054958
:103C200002A8FCF7C8FA10B9012004B010BD0020AA
:103C3000FBE700000B0000207047000008B50849B2
:103C40000968C9084FF47A72B1FBF2F1414300915F
:103C500000BF00BF00994A1E00920029F9D108BD9B
:103C60005C00002010B50248FEF79CFB10BD000070
:103C70006C000020014600BF080900EB80004200F4
:103C800001F00F001044C0B270470146002203E06B
:103C9000521CA1F10A00C1B20A29F9D2100741EA67
:103CA000106070472DE9F04706468846002700243B
:103CB0000025A146F77B747BB57B00BF40E0012C5B
:103CC0000BD0032C09D0052C07D0072C05D0082CCD
:103CD00003D00A2C01D00C2C0CD11F2D01D26D1C4D
:103CE0002CE00C2C02D0641C012527E001240125C6
:103CF0007F1C23E0042C05D0062C03D0092C01D016
:103D00000B2C06D11E2D01D26D1C17E0641C012561
:103D100014E0022C12D11C2D01D26D1C0EE01C2DC2
:103D200008D1B8B200F053F808B16D1C06E0641C6D
:103D3000012503E01D2D01D1641C012509F10109B4
:103D4000C145BCD3F7737473B573EAB2E1B23846B8
:103D500000F07CF83073BDE8F08770B504460025AC
:103D6000FDF7DEFD054607E0FDF7DAFD401BB0F587
:103D70007A7F01D9032070BD2068406800F02000E0
:103D80000028F1D02068406840F0100021684860A9
:103D90000020F0E770B5044600252068406820F058
:103DA000100021684860FDF7BBFD054607E0FDF700
:103DB000B7FD401BB0F57A7F01D9032070BD2068A4
:103DC000406800F020000028F1D00020F6E701460E
:103DD00001F0030008B1002070476420B1FBF0F24D
:103DE00000FB121008B10120F6E74FF4C870B1FBD8
:103DF000F0F200FB121008B90120EDE70020EBE71C
:103E00000146002200230868006A82B20868406AFE
:103E100083B243EA0240704730B5014600220023D6
:103E2000002400200D68AD69AAB20D68ED69ACB23E
:103E30000D68AD69ABB29A4205D00D68ED6963F3C8
:103E40001F45284601E044EA024030BDF0B5044673
:103E50000B460021002504F5FA61032B1BD2C3EBAE
:103E6000C30000EB03100926B0FBF6F01044001D60
:103E70004618481E06EB90066427B0FBF7F0361A8A
:103E8000481EBF00B0FBF7F030440726B0FBF6F742
:103E900006FB17051AE0C3EBC30000EB031009266D
:103EA000B0FBF6F01044001D084400EB91006426BE
:103EB000B1FBF6F6801B4FF4C876B1FBF6F6304442
:103EC000801E0726B0FBF6F706FB1705E8B2F0BD2B
:103ED00070B504460D4600262046FFF73EFF08B1A8
:103EE00001260AE0280C21680862A8B2216848620D
:103EF0002046FFF74FFF00B10126304670BD70B578
:103F000004460D4600262046FFF727FF08B101268C
:103F10000AE0280C21688861A8B22168C86120469F
:103F2000FFF738FF00B10126304670BD00B585B0FF
:103F300000BF1848806940F00800164988610846AB
:103F4000806900F00800009000BF00BF00BF084675
:103F5000806940F0010088610846806900F0010036
:103F6000009000BF00BF202001900020029001209F
:103F700003900320049001A90748FDF733FB1020AC
:103F800001900020029001A90348FDF72BFB05B02A
:103F900000BD000000100240000C0140704700000E
:103FA00001490968C8637047040200200149096893
:103FB000086470470402002010B507480078012803
:103FC00001D100F0B1FF02F0DDF802F0EFF802F0ED
:103FD00001F9FDF7ABFC10BD2C000020704700007C
:103FE00010B50268184B984208D0B0F1804F05D048
:103FF000164B984202D0164B984203D122F0700221
:104000004B681A43104B984208D0B0F1804F05D04E
:104010000E4B984202D00E4B984203D122F44072CC
:10402000CB681A4322F080034C6943EA0402026021
:104030008B68C3620B688362034B984201D10B69A2
:1040400003630123436110BD002C014000040040C4
:104050000008004030B501F01F05012404FA05F303
:10406000046A9C430462046A01F01F0502FA05F524
:104070002C43046230BD000030B5026A056A25F0A9
:10408000010505624368846924F0700424F0030488
:104090000D682C4322F002028D682A430D4DA84280
:1040A00006D100BF22F00802CD682A4322F00402A4
:1040B000084DA84207D123F4807323F400734D699F
:1040C0002B438D692B43436084614D6845630262D5
:1040D00030BD0000002C014030B5026A056A25F0B1
:1040E000100505624368846924F4E04424F44074B4
:1040F0000D6844EA052422F020028D6842EA051288
:104100000E4DA84207D100BF22F08002CD6842EADE
:10411000051222F04002094DA84209D123F4806320
:1041200023F400634D6943EA85038D6943EA8503FF
:10413000436084614D688563026230BD002C01409C
:1041400030B5026A056A25F4807505624368C46962
:1041500024F0700424F003040D682C4322F4007250
:104160008D6842EA05220F4DA84207D100BF22F414
:104170000062CD6842EA052222F48062094DA8421D
:1041800009D123F4805323F400534D6943EA051306
:104190008D6943EA05134360C4614D68C5630262DB
:1041A00030BD0000002C014030B5036A056A25F4DB
:1041B000805505624468C26922F4E04222F44072EC
:1041C0000D6842EA052223F400538D6843EA053363
:1041D000064DA84204D124F480444D6944EA851474
:1041E0004460C2614D680564036230BD002C01402B
:1041F00010B50C480C4908604FF4165048600C216B
:104200000948416100210161C1608160FEF792FCB3
:1042100005480068C06840F0200003490968C8608C
:1042200010BD0000003801408000002070B5044639
:104230002168096921F44051E26811432268116143
:104240002269A1681143626941EA02052168C968CF
:1042500041F20C62914329432268D1602168496987
:1042600021F44071A2691143226851612D4A2168ED
:10427000914202D1FDF71AFE01E0FDF707FE00EBC7
:10428000C00101EB001162689200B1FBF2F100EB9A
:10429000C00202EB001263689B00B2FBF3F26423DE
:1042A000B2FBF3F202EBC20303EB0212A1EB8201B9
:1042B000322202EB01116422B1FBF2F101F0F001B4
:1042C00000EBC00202EB001263689B00B2FBF3F24A
:1042D0006423B2FBF3F201EB021200EBC00101EB2D
:1042E000001163689B00B1FBF3F100EBC00303EB2B
:1042F00000136668B600B3FBF6F36426B3FBF6F36F
:1043000003EBC30606EB0313A1EB8301322303EB9C
:1043100001116423B1FBF3F101F00F011144226894
:10432000916070BD003801402DE9F04104460D4612
:1043300017469846069E34E0701C88B32EB1FDF7F0
:10434000EFFAA0EB0800B0422BD900BF00BF2168F4
:104350000C3151E8001F21F4D07021680C3141E884
:104360000002002AF3D100BF00BF00BF2168143152
:1043700051E8001F21F001002168143141E80002DA
:10438000002AF3D100BF202084F8410084F84200C5
:1043900000BF002084F8400000BF0320BDE8F0818A
:1043A000FFE7206800682840A84201D1012000E012
:1043B0000020B842C0D00020F0E7000008B51F4838
:1043C00000680068C0F34010B0B10A2301221C4904
:1043D0001A48FEF7B5FC1B480078802802DB002055
:1043E0001849087016480178164802780078401C71
:1043F000144B187014488154104800680068C0F3CA
:104400000010D0B110480078104908700E48FCF731
:1044100041FB00200B49087080210B48FBF79DFEF3
:1044200000BF002000900548006800680090034825
:1044300000684068009000BF00BF08BDBC010020BC
:1044400014000020130000203C0100201200002076
:1044500010B50F4800680068C0F34010B8B10D48AF
:104460000088802802D300200A4908804FF47A731C
:10447000012209490648FEF763FC07480178054810
:1044800002880088401C034B18800448815410BDEA
:10449000CC020020480000204C0000204C020020EC
:1044A00000BFFEE770B505460E4600F091F800F03B
:1044B00055F8280440EA063401F074FB202001F08E
:1044C00085FBC4F3074001F081FBC4F3072001F032
:1044D0007DFBE0B201F07AFB01F06EFB00F035F8F5
:1044E00070BD10B501F01AFB10BD2DE9F05F064656
:1044F0000F4690469946DDE90AAB00F069F83004B2
:1045000040EA073040EA082040EA090401F04AFB8B
:10451000032001F05BFBC4F3074001F057FBC4F339
:10452000072001F053FBE0B201F050FB002506E04C
:10453000FF2001F04BFB0AF80500681C85B25D45C1
:10454000F6DB01F039FBBDE8F09F10B501F02AFB66
:10455000042001F03BFB01F02FFB10BD10B501F072
:1045600021FB062001F032FB01F026FB10BD2DE9F6
:10457000F04706460F4690469946DDF820A000F029
:1045800027F8FFF7EBFF300440EA073040EA082441
:1045900001F008FB022001F019FBC4F3074001F011
:1045A00015FBC4F3072001F011FBE0B201F00EFB94
:1045B000002505E019F8050001F008FB681C85B22C
:1045C0005545F7DB01F0F8FAFFF7BFFFBDE8F087CC
:1045D00010B501F0E7FA052001F0F8FA00BFFF205E
:1045E00001F0F4FA00F001000028F8D101F0E4FA3B
:1045F00010BD00000FB4054B10B503A9044A029882
:1046000000F00AF910BC5DF814FB00003D520008F0
:10461000600000200FB4084B10B504A902AA03984B
:1046200000F0FAF8044602A9002000F078FC2046C9
:1046300010BC5DF814FB00001F4F00080248006822
:10464000C0F30220704700000CED00E010B5002818
:1046500004DB0A07130E054A135406E00A07140E7A
:10466000034A00F00F031B1FD45410BD00E400E008
:1046700018ED00E002E008C8121F08C1002AFAD1B4
:1046800070477047002001E001C1121F002AFBD1D2
:10469000704700002DE9FF5F82B00021DDE90430A2
:1046A000020DDDF840B0034318D044F61050A2F2DA
:1046B000FF3242431514119801281FD0A5EB0B00BF
:1046C000401C5FEA000A4FF000064E4FDFF83891B9
:1046D000B046504615D5CAF1000413E011980124E4
:1046E0004AA3012801D16FEA0B010298119AC0E98F
:1046F0000031C0E9024206B0BDE8F09FCBF10000F6
:10470000DFE704460021404A491842EB0450CDE956
:10471000001012E0E00707D032463B4640464946CB
:10472000FBF74FFE8046894632463B461046194607
:10473000FBF747FE06460F466410002CEAD1DDE980
:104740000401DDE90023BAF1000F06DAFBF739FEB8
:1047500042464B46FBF735FE05E0FBF7A4FE42461A
:104760004B46FBF7A0FE04460E460022284BFCF702
:1047700079F803D84FF0FF30014607E00022254BBF
:1047800020463146FBF776FDFCF754F8102409E08B
:10479000002C0ADB0A220023FBF766FF039B303262
:1047A0001A55641E50EA0102F2D1641C039AC4F146
:1047B00011031444119A012A03D0012208430DD198
:1047C0000AE0084304D000204FF0110B119072E76B
:1047D000A3EB0B056D1E0DE05B4504DD4FF0000201
:1047E00005F1010504E003DA4FF00002A5F101052F
:1047F000002AECD002981199C0E90231C0E90045C5
:1048000079E70000000014400000F03F3000000095
:104810000000F0430000E03F2DE9FF4F95B09A46BD
:10482000884606460025EEE1252877D10024274654
:10483000F94A0121039400E0044316F8013F203BAC
:1048400001FA03F01042F7D130782A2811D06FF026
:104850002F033078A0F13002092A16D8039A44F0C9
:10486000020402EB820203EB42021044761C039026
:10487000EFE758F8042B0392002A03DA504244F47D
:104880000054039044F00204761C30782E2816D190
:1048900016F8010F44F004042A280DD06FF02F02FF
:1048A0003078A0F13003092B09D807EB870302EB1E
:1048B0004303C718761CF3E758F8047B761C30785E
:1048C0006C280FD006DC4C2817D068280DD06A2839
:1048D00014D104E0742810D07A280FD10DE044F4EC
:1048E00000140AE044F4801401E044F440147278A7
:1048F000824202D104F58014761C761C307866283A
:104900000BD013DC582877D009DC002875D0452857
:10491000F6D04628F4D047281AD193E118E063284E
:1049200035D0642879D0652812D18BE1702873D0F6
:1049300008DC6728F1D069286FD06E280DD06F2869
:1049400006D1ACE073282CD0752874D0782853D0C9
:104950005246179990476D1C54E1C4F30250022847
:1049600009D003280DD0D8F8001004280DD00D6010
:1049700008F1040846E1D8F80010EA17C1E900522E
:10498000F6E7D8F800100D80F2E70D70F0E718F8A0
:10499000041B8DF8001000208DF80100EB4601206B
:1049A00003E058F804BB4FF0FF3061074FF00001FF
:1049B00002D40DE009F101018946B9420FDA8145BF
:1049C000F8DB1BF809100029F4D108E009F1010116
:1049D00089468142FADB1BF809100029F6D10398B9
:1049E0005346A0EB090721463846179A00F080FA93
:1049F000284400EB090507E044E008E10DE01BF85E
:104A0000010B524617999047B9F10109F7D2534665
:104A100021463846179AF2E039E00A21C4F30252DF
:104A20004FF0000B0091022A06D058F8040BC11772
:104A3000032A09D00AE023E008F1070020F007026A
:104A4000F2E80201904605E000B2C117042A01D144
:104A500040B2C117002906DA0A460021404261EB44
:104A600002012D2202E0220504D52B228DF804201C
:104A7000012203E0E20701D02022F7E7914657E048
:104A80000A2100E010214FF0000B00910BE01021F3
:104A90004FF0000B44F004040827009103E00820C5
:104AA0004FF0000B0090C4F30252022A05D058F8D0
:104AB000040B0021032A08D008E008F1070020F0C9
:104AC0000702F2E80201904603E080B2042A00D116
:104AD000C0B24FF0000922072AD53278702A07D0D9
:104AE000DDF800C08CF0100C5CEA0B0C05D00EE079
:104AF00040228DF80420012208E050EA010306D08C
:104B000030238DF804308DF8052002229146009B59
:104B100083F0080353EA0B030AD150EA010201D1E2
:104B2000620705D530228DF804204FF001097F1E61
:104B30003278582A04D039A20C920CAA02920BE0C7
:104B40003BA2F9E75B46009AFBF78EFD0C9B9B5C52
:104B5000029A521E0292137050EA0102F2D1029898
:104B600004A9081A00F1200B600702D524F4803450
:104B700000E001275F4502DDA7EB0B0000E000200D
:104B800000EB0B01009003984944401A0390E003A6
:104B900006D453462146179A039800F0A9F9054414
:104BA000002706E001A85246C05D179990476D1C8A
:104BB0007F1C4F45F6DBE0030CD553462146179A80
:104BC000039800F095F9054404E030205246179907
:104BD00090476D1C0099481E00900029F5DC08E004
:104BE0000298029952460078491C02911799904701
:104BF0006D1CBBF10001ABF1010BF1DC5BE100F0DE
:104C000065F90544761C307800287FF40DAE19B0A4
:104C10002846BDE8F08F000009280100303132330A
:104C200034353637383961626364656600000000E8
:104C300030313233343536373839414243444546D2
:104C400000000000600700D4062708F1070020F0EC
:104C50000700F0E80223804603F0004C5FEA0C00F6
:104C600001D097A009E0200501D596A005E0E00756
:104C700001D095A001E0AFF24C001390307823F002
:104C8000004365280CD006DC452809D046281DD0F5
:104C900047287FD13BE0662818D067287AD136E0D4
:104CA0000021112F01DB112000E0781CCDE900016B
:104CB00004A90CA8FFF7EEFCDDE90D010C9A4FF0FA
:104CC000000B07F10109109200914EE04FF00040F7
:104CD0000097CDE9011004A90CA8FFF7DBFCDDE982
:104CE0000D020C9B0F994FF0000B91461093009210
:104CF00011B9791C00EB0109B7EB090003D4C0F12D
:104D0000FF3B07F10109A9EB0700019042E0012FE9
:104D100000DA01270021112F01DD112000E03846C3
:104D2000CDE9000104A90CA8FFF7B4FCDDE90D01F1
:104D30000C9A00914FF0000BB946109221070FD446
:104D4000009A4A4503DA914601E0A9F10109B9F157
:104D5000010F05DD109AA9F10101515C3029F4D051
:104D6000B84202DA10F1040F03DA0121CDE9011093
:104D700010E0002803DC8344A9EB000102E0411CA1
:104D8000494500DD8946A0EB0B00401C01904FF027
:104D900000400290200705D40198484502DB4FF0FF
:104DA000FF30019000208DF84B0002980DF14B0769
:104DB000B0F1004F25D002200C902B200D900298CE
:104DC00000280CDA404202902D200D9007E00A21C5
:104DD0000298FBF733FC3031029007F8011D0C9963
:104DE000481E0C900029F2DC02980028EFD1791EB1
:104DF0000D980870307800F0200040F0450007F86A
:104E0000020D11A8C01BC01D02901398007800B1BC
:104E1000012000EB0901019801EBE07102980144C7
:104E20000398401A401E0390E00306D453462146DF
:104E3000179A039800F05CF805441398007818B1AD
:104E40005246179990476D1CE00323D553462146DF
:104E5000179A039800F04CF805441BE0BBF1000FD3
:104E600007DB0098584504DD1098179910F80B00DF
:104E700001E0179930205246904701980BF1010B41
:104E8000401E05F10105019004D12E2052461799CC
:104E900090476D1CB9F10001A9F10109DEDC05E0C4
:104EA00017F8010B5246179990476D1C0299481E3E
:104EB00002900029F4DC53462146179A03989EE697
:104EC0002D0000002B000000200000002DE9F04123
:104ED000044600251E461746880404D405E03946DA
:104EE0002020B0476D1C641EF9D52846BDE8F0812E
:104EF0002DE9F041044600251E469046C80301D521
:104F0000302700E02027880404D505E041463846D4
:104F1000B0476D1C641EF9D52846BDE8F0810A68CB
:104F2000531C0B601070704707480088401C0649EE
:104F3000088008460088B0F5FA6F04D100200349C4
:104F40000870014908807047180000202C000020DC
:104F500000B56420FFF724F800BD00B50A20FFF774
:104F60001FF800BD00B53220FFF71AF800BD00B5EC
:104F70000020FFF715F800BD00B585B000BF0E4852
:104F8000806940F010000C4988610846806900F093
:104F90001000009000BF00BF4FF4005001900120AE
:104FA000029003900320049001A90448FCF71AFB27
:104FB00000F006F805B000BD0010024000100140EE
:104FC00010B5012251030248FCF7A4FC10BD0000FB
:104FD0000010014010B500224FF400510148FCF7C9
:104FE00099FC10BD0010014010B54FF40051054868
:104FF000FCF788FC10B9FFF7E3FF01E0FFF7EAFFD9
:1050000010BD0000001001401FB500200290039069
:10501000062002A900231A46CDE9001019461846B9
:10502000FFF763FA9DF80800FF2802D09DF80800FA
:1050300010B9002004B010BD0120FBE710B50446F4
:1050400003E04FF47A7000F005F8201EA4F101048B
:10505000F7D110BD70B5034600224FF0E026756908
:1050600003EBC306F4004FF0E026B16910E04FF007
:10507000E026B06988420BD0884202D20E1A324430
:1050800002E0461AAE1B32440146A24200D300E0C1
:10509000EDE700BF70BD000000B585B000BF0E4851
:1050A000806940F008000C4988610846806900F07A
:1050B0000800009000BF00BFC814019001200290BA
:1050C00003900320049001A90448FCF78BFA00F038
:1050D00007F805B000BD00000010024000080140C4
:1050E00010B50122D1020248FCF714FC10BD0000EB
:1050F0000008014010B500224FF400610148FCF7A0
:1051000009FC10BD0008014000B585B000BF0E4885
:10511000806940F004000C4988610846806900F00D
:105120000400009000BF00BF88140190012002908D
:1051300003900320049001A90448FCF753FA00F0FF
:1051400007F805B000BD0000001002400008014053
:1051500010B5012211030248FCF7DCFB10BD000072
:105160000008014010B500224FF480510148FCF7BF
:10517000D1FB10BD000801402DE9F047194908880E
:10518000FBF700FA81464FF08B41FBF735F80446F8
:10519000FBF71BFA07464FF06632134BFBF711F98A
:1051A0000546FBF725FA11490860114801680F48C8
:1051B0000068FBF739FA02D201200E4908700D4849
:1051C0000078012804D1FFF7CDFFFFF703FF06E0C9
:1051D0000848007818B9FFF7BBFFFFF7F1FEBDE8FC
:1051E000F08700005600002066660A402400002078
:1051F000280000202C00002010B5FEF7CEF9032275
:1052000011460220FEF71EFB042205210220FEF7B4
:1052100019FB052207210220FEF714FB15220921A4
:105220000220FEF70FFB16220B210220FEF70AFBDD
:1052300021220D210220FEF7CBFA10BD70B50446E5
:105240000D46E0B200F04CFF204670BD10B50028BE
:1052500021D0114B0022001F196803E0814203D8BE
:105260000A4649680029F9D152B11368841A9C4250
:1052700004D1006818441060104602E0506000E05D
:10528000186039B102680B1A934203D10B681A44B3
:1052900002604968416010BD64000020034909783C
:1052A0003039C8B20021014A117070471200002045
:1052B00010B500F029FE002450E000F0B7F80446D5
:1052C000232C01D02A2C01D1204610BD002C45D022
:1052D00023480078062841DA214801780078401CEC
:1052E0001F4A10701F48445410460078012805D109
:1052F0002A2205210220FEF76BFA2FE018480078D9
:10530000022804D12A220621FEF762FA26E0144878
:105310000078032805D12A2207210220FEF758FA37
:105320001CE00F480078042805D12A220821022019
:10533000FEF74EFA12E00A480078052805D12A2225
:1053400009210220FEF744FA08E005480078062803
:1053500004D12A220A210220FEF73AFAADE7000022
:10536000110000200B00002010B510210548FCF7AB
:10537000C9FA044620210348FCF7C4FA44EA400075
:10538000C0B210BD000C014010B5FEF706F90224B2
:105390000FE00121002000F0BFFC4FF49670FFF7F2
:1053A0004DFE0021084600F0B7FC4FF49670FFF761
:1053B00045FE201EA4F10101CCB2EAD10B480078D1
:1053C000401EC0B20949087070B9FFF715FFFFF71A
:1053D00001FE4FF47A70FFF731FEFFF7F1FDFEF7A3
:1053E000DCF803200149087010BD00000A0000200D
:1053F00010B5FEF7D2F80121084600F08DFC4FF4FD
:10540000FA70FFF71BFE0021012000F085FC042448
:1054100004E0FFF7E9FD5820FFF710FE201EA4F17D
:105420000101CCB2F5D1FFF765FE10BD10B5002427
:105430002B480078002850D029480078112801D145
:10544000312440E026480078122801D132243AE085
:1054500023480078132801D1332434E02048007811
:10546000212801D134242EE01D480078222801D1C2
:10547000352428E01A480078232801D1362422E078
:1054800017480078312801D137241CE014480078EF
:10549000322801D1382416E011480078332801D190
:1054A000392410E00E480078412801D12A240AE06E
:1054B0000B480078422801D1302404E008480078E5
:1054C000432800D12324214606A0FFF793F8C820E3
:1054D000FFF7B4FD002002490870204610BD00000F
:1054E00009000020B0B4CFC2C1CB3A2563BCFC0D8B
:1054F0000A00000000B585B000BF2F48806940F069
:1055000008002D4988610846806900F00800009075
:1055100000BF00BF00BF0846806940F004008861FA
:105520000846806900F00400009000BF00BF41F20F
:10553000070001902148029001200390032004906D
:1055400001A91F48FCF74EF84FF4C040019000201D
:1055500002900220039001A91948FCF743F84FF488
:1055600080700190002002900220039001A915484C
:10557000FCF738F8002201210620FCF72EFA06205D
:10558000FCF71BFA002201210720FCF726FA07206E
:10559000FCF713FA002201210820FCF71EFA08206C
:1055A000FCF70BFA002201212820FCF716FA28202C
:1055B000FCF703FA05B000BD001002400000211006
:1055C000000C01400008014010B5FFF767FE2149BB
:1055D0000870FFF7C9FE20490870084600781F4987
:1055E0000978884207D01C4800781A4908701A4880
:1055F00000781A490870174800780A2828D2DFE88E
:1056000000F005080B0E1114171A1D2200F037F8D0
:105610001EE000F02AF81BE000F02CF818E000F083
:105620001FF815E0FFF799FC12E0FFF79BFC0FE075
:10563000FFF78EFC0CE0FFF79AFC09E000F010F891
:10564000FFF786FC04E000F01AF8FFF790FC00BFBB
:1056500000BF10BD200000202100002022000020FB
:1056600000B56420FEF7A2FC00BD00B50A20FEF7DD
:105670009DFC00BD00B53220FEF798FC00BD00B5D2
:105680000020FEF793FC00BD10B5FDF786FF032058
:105690001C49087032E0FEF7BFF9012000F088FBDA
:1056A000FFF7C4FE232802D02A281AD116E000F002
:1056B00011FB02E00220FEF75DF8FFF7F9FD232859
:1056C000F8D1FEF79DFA012805D1FFF791FE0020E1
:1056D0000D49087001E0FFF757FE02E000F020FCE2
:1056E00000BF00BF0848007840B90121002000F049
:1056F0006FFB4FF4FA70FFF7A1FC00E0CBE700BFAF
:1057000010BD00000A0000204E000020FCF71AF92E
:105710004FF4E01000F002FDFFF72EFCFEF768FDED
:10572000FFF7E8FEFDF7CEFFFEF7DBFE00F072F9B3
:10573000FEF7FCFBFBF786F9FFF7E6FCFFF7ACFC96
:1057400041F61F416320FDF7EBFBFBF77BFA0CA052
:10575000FEF750FF00BFFEF7CBF90028FBD14FF456
:10576000FA70FFF76BFC0CA0FEF744FF00F082F923
:1057700002210F4800F0F4F801E0FBF7F3F9FCE731
:1057800065737038323636E585A5E7BD91E68890B9
:10579000E58A9F210D0A0000E5B7B2E68890E58A08
:1057A0009FE68EA5E585A56F6E656E65740D0A0092
:1057B00056000020F0B50B30154D20F007010024F5
:1057C000144A0FE003688B420BD38B4205D95E1A53
:1057D00043184768C3E9006700E04368136002C0EC
:1057E00004E0021D10680028ECD12046002802D1F8
:1057F000286808B10020F0BD064A07481060074A33
:10580000121A22F00702C0E9002401202860D7E71D
:1058100068000020640000201C0300201805002000
:105820002DE9F843002000900090684600F0C2FB8C
:105830009DF80300FAF7BCFE80460022254BFAF7DC
:1058400032FE04460D469DF80200FAF7B1FE064608
:1058500022462B46FAF70EFD1F4A03C29DF80100AF
:10586000FAF7A6FE064600221A4BFAF71CFE04467B
:105870000D469DF80000FAF79BFE804622462B4617
:10588000FAF7F8FC154A03C215494988642201FB5E
:1058900002F4E11704EB11510913C1F16400FAF7A6
:1058A00076FE104A03C20C480CC80FA0FEF7A2FEF9
:1058B0000A480CC810A0FEF79DFE0A480CC812A0AA
:1058C000FEF798FEFEF764F913A0FEF793FEBDE81D
:1058D000F883000000002440300000203800002041
:1058E000560000204000002054454D503A252E6CB3
:1058F00066A1E60D0A000000486D69643A252E6C29
:105900006625250D0A0000006C696768743A252E2B
:105910006625250D0A000000CAFDBEDDB3C9B9A683
:10592000C9CFB4AB210D0A0010B50B480B49086074
:10593000002048604FF48061084841618021C160C7
:10594000490001610021816020218161C901C1619B
:10595000FBF75AFD10BD000008000240F8000020CF
:1059600038B504460D4620482049086001211F48EB
:105970000173022101610021017581614FF4807181
:1059800081600020194948604FF460211748C161C7
:10599000FBF79EFB1548FBF759FA0722012100206F
:1059A00000F02AF807220221012000F025F800BFAC
:1059B0000F48406940F001000D49486108464069C0
:1059C00000F00100009000BF00BFFFF7ADFF00BF77
:1059D00008480649086208460649486200BF2A4648
:1059E0002146FBF751FC38BD00240140C8000020CF
:1059F00000100240F8000020FEB506460C46154691
:105A000000960194029569460148FBF7ADFAFEBD88
:105A1000C800002008B500BF1348C06940F080509E
:105A20001149C8610846C06900F08050009000BF6D
:105A300000BF00BF0846C06940F00060C86108466A
:105A4000C06900F00060009000BF00BFFCF718F8CC
:105A500006480749086049F63F404860002104486D
:105A60008160FCF769FD08BD00100240002800407D
:105A70006C00002010B5024800F026F810BD0000B0
:105A80004F0000201CB50446002269460D48FCF773
:105A9000A7FC002201A90B48FCF7CBFC9DF80300F2
:105AA00020709DF8010060709DF80200A0709DF8C4
:105AB0000400E0709DF8050020719DF806006071FB
:105AC0001CBD00006C0000201CB5044620788DF839
:105AD000070060788DF80500A0788DF80600002298
